:10000000C0180400000000000418000008180000D8
:100010000C1800001018000014180000BC18000094
:10002000BC180000BC180000181800001C180000C4
:100030002018000024180000BC1800002818000038
:100040002C18000030180000341800003818000088
:100050003C18000040180000441800004818000038
:10006000BC180000BC1800004C180000501800001C
:1000700054180000581800005C180000BC1800005C
:10008000BC180000BC180000BC180000601800007C
:1000900064180000681800006C1800007018000058
:1000A00074180000781800007C1800008018000008
:1000B000BC180000BC180000BC1800008418000028
:1000C000881800008C180000BC1800009018000070
:1000D000BC180000BC180000BC18000094180000F8
:1000E000BC180000BC180000BC18000098180000E4
:1000F0009C180000BC180000BC180000BC180000D0
:10010000BC180000BC180000BC180000BC1800009F
:10011000BC180000BC180000BC180000BC1800008F
:10012000A0180000BC180000BC180000A4180000B3
:10013000A8180000AC180000BC180000BC18000093
:10014000BC180000BC180000B0180000BC1800006B
:10015000BC180000BC180000BC180000B418000057
:10016000BC180000BC180000BC180000BC1800003F
:10017000BC180000BC180000BC180000BC1800002F
:10018000B8180000BC180000BC180000BC18000023
:10019000BC180000BC180000BC180000BC1800000F
:1001A000BC180000BC180000BC180000BC180000FF
:1001B000BC180000BC180000BC180000BC180000EF
:1001C000BC180000BC180000BC180000BC180000DF
:1001D000BC180000BC180000BC180000BC180000CF
:1001E000BC180000BC180000BC180000BC180000BF
:1001F000BC180000BC180000BC180000BC180000AF
:1002080068190000681900006819000068190000E2
:1002180068190000681900006819000068190000D2
:1002280068190000681900006819000068190000C2
:1002380068190000681900006819000068190000B2
:1002480068190000681900006819000068190000A2
:100258006819000068190000681900006819000092
:100268006819000068190000681900006819000082
:100278006819000068190000681900006819000072
:100288006819000068190000681900006819000062
:100298006819000068190000681900006819000052
:1002A8006819000068190000681900006819000042
:1002B8006819000068190000681900006819000032
:1002C8006819000068190000681900006819000022
:1002D8006819000068190000681900006819000012
:1002E8006819000068190000681900006819000002
:1002F80068190000681900006819000068190000F2
:1003080068190000681900006819000068190000E1
:1003180068190000681900006819000068190000D1
:1003280068190000681900006819000068190000C1
:1003380068190000681900006819000068190000B1
:1003480068190000681900006819000068190000A1
:100358006819000068190000681900006819000091
:100368006819000068190000681900006819000081
:0C037800681900006819000068190000F6
:10300000C01804000000000068190400000000005F
:103010002C2C0400000000003E2C040000000000E6
:10302000342C040000000000462C040000000000C6
:103030006819040000000000681904000000000086
:10304000F4260400000000009029040000000000A5
:103050006819040000000000681904000000000066
:103060006819040000000000681904000000000056
:103070006819040000000000681904000000000046
:10308000AC1F0400000000003A1F04000000000014
:103090006819040000000000681904000000000026
:1030A0006819040000000000681904000000000016
:1030B0006819040000000000681904000000000006
:1030C00068190400000000006819040000000000F6
:1030D00068190400000000006819040000000000E6
:1030E00068190400000000006819040000000000D6
:1030F00068190400000000006819040000000000C6
:1031000068190400000000006819040000000000B5
:1031100068190400000000006819040000000000A5
:103120006819040000000000681904000000000095
:103130006819040000000000681904000000000085
:1031400068190400000000000E20040000000000C8
:103150006819040000000000681904000000000065
:103160006819040000000000681904000000000055
:103170006819040000000000681904000000000045
:103180004F9820000E7F22000E01880000000000F2
:10319000000020000000E0000200320000012000DA
:1031A000200288000C00070080AE220001002000F1
:1031B00011000700000020000000E00002003200C3
:1031C00000000200000000007E2B02000000000052
:1031D0000040DA000000FE004440A900600020002A
:1031E0000000E0000300320000002000A001880081
:1031F0004440A8000000060091018800800078008B
:103200000000EB0015003700E280400032A0B4005F
:103210009101BA00E280400032A0B4009102BA00ED
:10322000E280400032A0B4000002EB00472BDE0039
:10323000F507B200602CE10004003A000059EB00F1
:103240008301E900FDFF3E00040037006128E10032
:10325000010032000082EB000B00070011C3BA002E
:103260001101BA000604E00003003A000200E00089
:10327000E5FF3A0000000600F607B200960188005C
:1032800082007800F5FF37003159BA008301E90068
:103290000C0032002159BA008301E9000800320015
:1032A0000400E00003003A00E280400032A0B400D5
:1032B000F5FF370011D9BA008301E900FAFF3A009F
:1032C0008100E800E180400032A0B4000000060068
:1032D0000040DA000000FE00839F68000100E0006B
:1032E00002003D0060001000E08018000300E000D4
:1032F00002003D0060011100E08119000500070097
:103300004F00E00002003B0060001000E080180069
:10331000000006006022B800060220000000D00075
:103320008180D2000482D2008582D2000000A000F9
:103330000202520083825A0003003100020242005E
:1033400083824A000000A1000603E900F3FF3A006F
:10335000000006008001780002003700B1597800B3
:103360000201E9000200E000FCFF3A000000060054
:10337000E4874700889FBE008A9FBE008C1F7800AC
:103380008E1F78000005780001077800020678009B
:103390000E00E00001003A006E8757008A057800B1
:1033A0008B047800890578003B4478000800FB0016
:1033B000D20007000000E000F9FF3A00D0C2B300DD
:1033C000804F54000300320000C0E900804F5400D9
:1033D00002003A008904E800010037000044780048
:1033E0000C0178008E0078000900780029000700A1
:1033F0009E8F540001003A000A0F78009E0F55007E
:1034000003003A00E00F5000E08F58000F003A0030
:10341000B2C2B300824F540004003A00E00F5000E3
:10342000E08F580015003D0008003700D2C2B300FD
:10343000824F540011003A000200200003002800CF
:10344000820F5000838F58000A00360020022000AF
:10345000F04B8800F0FF2F00F1FF2700D2C2B3002D
:10346000824F540005003A000000200001002800AF
:103470000200370060001000E08018004F0778005D
:103480004F0678004F05BE004F04BE004F00B1004C
:1034900000000600EE874700889FBE008A9FBE009E
:1034A0008C9FBE008E1F7800F0B79F000106780049
:1034B0008205780000047800080578000A04780086
:1034C000B84678000D00FB008C0007000000E0000B
:1034D000F9FF3A00D0C2B30080CF5600030032009B
:1034E00000C0E90080CF560002003A000A05E8005B
:1034F00001003700804678000B00E0000500350031
:10350000E18F55000300320040022000808F5500FB
:10351000060034006044B8000C00E0007000320087
:103520007FB09700000E78006D0037000B00E000C0
:103530000E003200F08F55001A003A0000C3B300AD
:103540009A4F100017003A001A40900081C7B3004C
:10355000814F50000300320081C5B300814F5000FD
:1035600010003A000A85E8000E003700AB0020008A
:1035700000C3B3009A4F10000A003A001A409000AE
:1035800081C7B300814F5000040032008B0020003F
:1035900081C5B300814F500002003A000A85E8005F
:1035A0000B0120000A007800000278000400780077
:1035B00001C3B300B0CF1000FBFF32000407780056
:1035C0006044B800B4B79F000D003700018B2000A5
:1035D00081405000C1EF9F006159B9000800BE0052
:1035E000650007004FEA97000401FB00CF91DE0061
:1035F000C8B79F00D9B79F000204400083844800E9
:103600008E0278003E00FB0085BF9F00430007004C
:103610000B01780080007800008B20004C00070030
:103620008FBA97000000E000E8FF3A003FB2970031
:10363000850F550005003A006044B8000C00E0001A
:1036400027003200FFB297002400370004825200A6
:10365000508D200060C07D000000FB000002520081
:103660001700330011003A004FE997000200FB00F9
:10367000CF80DE000000540081805C00800F540089
:10368000818F5C00090039006159B90085BF9F0036
:1036900020FF07008FBA97004FB19700DFB1970066
:1036A000820F5000838F5800050032002002200056
:1036B000F04B88000084EB008084EB0005003700AD
:1036C000D0C2B30080CF560002003A00600414005C
:1036D000E0841C000C00E00001003200050E7800C0
:1036E0000800BE004F0778004F06BE004F05BE0021
:1036F0004F04BE00EF00B100000006006900E100C9
:10370000040035006D00E100030034000002B10048
:103710000100320000000500100005008000780064
:103720001104B100030035009101B10001003C001B
:103730000050A00000000600004C80000000E000E7
:103740000100320000000100E097200000000600A8
:1037500003003700B0CF1000050032000201E9007D
:10376000800178000200E000FAFF3A000000050046
:103770000300780000000600020AB900001BB9002F
:103780000200B800810042008100430000000600F2
:10379000312E000031300000000000000200FA006D
:1037A000881F7800D002A900C8E2A900C902A900B8
:1037B0000040EB00004F78004B0037001E80FB00FC
:1037C0007800B90080007800C090200000804000A0
:1037D0008040EB00014878001E80FB007800B900B3
:1037E00080007800A08F2000008040008000EB0067
:1037F000010878001E80FB007800B9008000780086
:103800000090200000804000810C2000010878001A
:103810001E80FB007800B900800078002090200016
:103820000080400021032000010878001E80FB007A
:103830007800B900800078004090200000804000AF
:10384000813E2000010878001E80FB007800B9004E
:10385000800078006090200000804000411F200020
:10386000010878001E80FB007800B9008000780015
:103870008090200000804000411F20000108780057
:103880001E80FB007800B90080007800A090200026
:10389000008040008040EB00014878001E80FB0063
:1038A0007800B90080007800A090200000804000DF
:1038B0008040EB00114098001E84FB00DE060700EC
:1038C000000178007840B90080007800E090200086
:1038D00000804000020878008040EB001E40780025
:1038E000470007001E4FE8001E407800E24F5000DE
:1038F000B2FF36004F0478000080FA000000060096
:103900000600FA00CC060700CF80DE001007980002
:10391000210798000040EB00004F7800330037008B
:103920001E80FB007800B90080007800A08F200086
:10393000008040000040880000408000005090005F
:103940000004E00020003200104080002140800090
:103950001E019000AE0190000001510081815900CC
:1039600000408000400090008000EB00800F51007C
:10397000818F59001C00390000408000A000900099
:103980008100E8002100980000408000DD00070071
:1039900000408000A00090000040800030009000B7
:1039A000808F500003003900004080008040EB0011
:1039B000015098001E019000AE0190001240880056
:1039C0002340880008003700004080001000780085
:1039D0000000E00004003200004080001E01900062
:1039E000AE019000CB0007001E4FE8001E4078009B
:1039F000E24F5000CAFF36000080FA0000000600C7
:103A00000200FA00004F7800114798001E80FB006A
:103A1000E10F50000E003200E20F5000170032009C
:103A20000000E00021003A001E409000614060006C
:103A30000080FB0061006000A2168000E1FF2F0003
:103A40008100610001007000A01688001800370096
:103A50001E409000614060000080FB00610060003B
:103A60004700DD0062168000F1F72F008100610041
:103A700001007000601688000D0037001E409000A5
:103A8000614060000080FB00610060004800DD00D4
:103A900062168000F1EF2F008100610001007000CC
:103AA00060168800000000000100370000000000E0
:103AB0000080FA00000006000200FA00004F7800C3
:103AC0001E80FB00E10F500011003200E20F500099
:103AD0001D0032000000E0002A003A00A01680001D
:103AE00000407800614060000004A2006140600076
:103AF0000080FB0061006000A2168000E1FF2F0043
:103B00008100610001007000A01688001E003700CF
:103B1000601680004700DE00614060000004A200E3
:103B2000614060000080FB00610060004700DD0034
:103B300062168000F1F72F00810061000100700023
:103B40006016880010003700601680004800DE0014
:103B5000614060000004A200614060000080FB0042
:103B6000610060004800DD0062168000F1EF2F0068
:103B700081006100010070006016880000000000F4
:103B800001003700000000000080FA00000006007D
:103B90000200FA00004F78001E80FB007800B90098
:103BA00000007800F0004000A08F2000008040005E
:103BB000104078000080FA00000006000200FA00C1
:103BC000004F78001E80FB007800B90000007800EC
:103BD000F0004000A08F20000080400010407800DE
:103BE0000004A2000080FB00004078000080FA0082
:103BF000000006000400FA00004F7800110798004A
:103C00001E80FB007800B90080007800A08F2000A3
:103C1000008040009E009000010878000080FA00BB
:103C2000000006000400FA00004F78001107980019
:103C30001E80FB007800B9008000780040902000D2
:103C4000008040009E009000010878000080FA008B
:103C5000000006000400FA00004F780011079800E9
:103C60001E80FB007800B9008000780020902000C2
:103C7000008040009E009000010878000080FA005B
:103C8000000006000400FA00004F780011079800B9
:103C90001E80FB007800B9008000780000902000B2
:103CA000008040009E009000010878000080FA002B
:103CB000000006000600FA00004F78001107980087
:103CC000220798001E80FB007800B9008000780071
:103CD00060902000008040009E0090000108780065
:103CE0001E80FB007800B9008000780080902000E2
:103CF00000804000AE009000010878000080FA00CB
:103D0000000006000200FA00000F78000080FA00B0
:103D1000000006000800FA0010079800220798002B
:103D200033079800C9050700000F78001E009000B7
:103D3000B00890001E009000200890001E001000A7
:103D4000808040001E009000310898001E00900006
:103D50009E007800210898001E00900010509000EE
:103D60000004A2000004E000110032001E009000D8
:103D7000B00890001E00900070009000808F5000EE
:103D80001B0039001E0090002050900011C0B300AD
:103D90001BFF07001E0090008000EB003108980018
:103DA0001E00900011C0B3001150980010003700A1
:103DB0001E009000B00890001E009000600090006F
:103DC000808F50000A0039001E00900020509000A3
:103DD0008040EB000AFF07001E0090008000EB000F
:103DE000310898001E0090008040EB0011509800B0
:103DF0000080FA00000006000000FA0080002000A9
:103E0000001188002222EF00F00C200040118800F1
:103E10009560A80021E2A8002342A800808220002B
:103E2000204188008082200010418800008320000B
:103E30000041880000832000F0408800304180006D
:103E40000010A00030418800304180000090A000A8
:103E500030418800304180000080A100304188005E
:103E6000304180000000A100304188000080FA004D
:103E7000000006003600F800809FBE00829FBE0052
:103E8000849FBE00869FBE000000FA008040EB00C9
:103E900010C0B300DAFE070031418000002020008E
:103EA000008060000000E000020032009580A90060
:103EB000220037008580A9001800370020418000CB
:103EC000104078000080FB00201188002041800015
:103ED0000000E8002041880021418000008320008C
:103EE000808F500002003A0080822000204188002C
:103EF000304180000080A1003041880021418000D5
:103F000010418000808F500004003A003041800052
:103F10000090A0003041880005003700111180009A
:103F200000202000008060000000E000E3FF32007D
:103F300011C0B30010C0B300B1FE07000080FA004A
:103F40004F03BE004F02BE004F01BE004F00BE0037
:103F50003600F900004006003600F800809FBE00E1
:103F6000829FBE00849FBE00869FBE000000FA00B4
:103F70008040EB0020C0B300A1FE0700180037000E
:103F8000F0408000311180008140780001487800C5
:103F9000F04080000000E800F0408800F140800020
:103FA000008B2000808F500002003A000083200028
:103FB000F0408800304180000010A10030418800AE
:103FC000F140800000418000808F500004003A00E2
:103FD000304180000000A00030418800040037001C
:103FE00010118000610060000000E000E4FF3A0072
:103FF00011C0B30020C0B30081FE07008560A90096
:104000000080FA004F03BE004F02BE004F01BE0009
:104010004F00BE003600F90000400600801F780007
:104020000000FA0010118000620060000000E00053
:10403000010032002222A9008C20A9000080FA0091
:104040004F007800004006000200FA000040EB003C
:10405000004F780000418000104F78000041800040
:104060000000E8000041880001418000008B200032
:10407000808F500002003A00008320000041880039
:1040800001418000F0408000808F500003003A0022
:10409000304180000010A000304188003041800095
:1040A0000000A100304188001E4078000080FA0026
:1040B000000006000600FA00881F7800100798002C
:1040C000210798000000EB00000F7800090037007E
:1040D00030418000620060000000E0000A003A0009
:1040E0001E0090001E044000D7FF0700004C78001F
:1040F0001E0FE8002E0090009E007800808F500078
:10410000F3FF390001003700000000001E007800B6
:104110004F0478000080FA00000006000200FA0058
:10412000004F78009580A900104180001E4878005B
:10413000104180000000E80010418800114180001B
:1041400000832000808F500002003A00808220000F
:1041500010418800304180000090A100304188006B
:104160002141800010418000808F500003003A0000
:10417000304180000080A000304188009580A80078
:104180000080FA00000006000600FA001007980000
:10419000210798000000EB00000F78000A003700AC
:1041A0003141800000102000008060000000E0002D
:1041B0000A003A001E0090001E00400010407800E7
:1041C0001E0FE800D5FF07002E0090009E0078002B
:1041D000808F5000F2FF390001003700000000001E
:1041E0001E0078000080FA00000006000200FA00BD
:1041F0000000EB00000F780031418000001020002B
:10420000008060000000E000010032001E30A000CD
:104210003141800000202000008060000000E000AC
:10422000010032001E40A0003041800061006000AB
:104230000000E000010032001E00A00030418000BC
:10424000620060000000E000020032001E20A000BA
:10425000010037001E10A0001E0078000080FA0048
:10426000000006000200FA00000F78000041800004
:104270009E004000008B2000808F50000800360018
:10428000004180009E004000008B20000000EA00FA
:104290000080400001832000614078000300370067
:1042A000004180001E004000104078000080FA00AD
:1042B000000006000000FA0030418000610060004C
:1042C0000000E0000F003A0001418000F040800053
:1042D000808F50000500360000418000800078008B
:1042E000F04080000080500007003700004180004F
:1042F00080007800F0408000008050000008B0008E
:10430000010037000000EB000080FA00000006000A
:104310000000FA00314180000010200000806000A1
:104320000000E0000F003A002141800010418000B1
:10433000808F50000500360020418000800078000A
:1043400010418000008050000700370020418000AD
:10435000800078001041800000805000680040001C
:10436000010037000000EB000080FA0000000600AA
:104370000000FA00304180000000D1006140600080
:104380000080FB0000F0A7000000EA000000EA0047
:104390004F00DE00004078000080FA0000000600B8
:1043A0000000FA00304180004800DE0061406000FB
:1043B0000080FB0000F0A7000000EA000000EA0017
:1043C0004F00DE00004078000080FA000000060088
:1043D0000000FA00101180000080FA0000000600C2
:1043E0000000FA00D122A900C822A800C802A80033
:1043F00010C0B3000CE8B700550007000080FA00B9
:10440000000006000000FA000080FA00000006002C
:104410000400FA000D040700000F780080408000BF
:104420001E001000100798009E0078008140880050
:1044300050168000610060000000E00008003A00B3
:104440000CC8BF000004E00005003200A14B800052
:104450001E00900000804000A04B88000200370042
:104460000000EB00A04B8800501680006200600046
:104470000000E00008003A000CC8BF000004E000A3
:1044800005003200D14B80001E00900000804000EB
:10449000D04B8800020037000000EB00D04B8800B2
:1044A0000CC8BF000004A2000004E0000A003200B3
:1044B000714080001E009000008040007040880025
:1044C00071408000900F2000808F50000200360065
:1044D00010C0B3000CE8B7003D0007000080FA00F0
:1044E000000006000000FA0050408000210020007B
:1044F000010878008000EB000040EB00BDFD0700E4
:1045000011C0B3000040EB003DFD0700D522A8001C
:104510000080FA00000006000000FA005040800011
:10452000110020000108780042062000410620000A
:104530000040EB00DFFD0700110020000040EB0011
:10454000ACFD0700D522A8000080FA00000006009C
:104550000000FA00504080008000EB000108780065
:1045600082BB2000A10F20000040EB00D1FD07001E
:10457000110020000040EB009EFD0700D522A9009D
:104580000080FA00000006000000FA0050168000CB
:10459000620060000000E00006003A005040800029
:1045A000100078000000E00002003A0089000700D7
:1045B0000500370050168000620060000000E00037
:1045C00001003200880007000080FA0000000600A9
:1045D0000000FA00250007000080FB00E10F5000FA
:1045E0000E003200E10F500003003C000000E0002C
:1045F0000600320013003700E30F500005003200C0
:10460000E40F50000B0032000E0037009F0007003F
:104610000C003700A80007000A0037005040800057
:10462000100078000000E00005003A006900070073
:10463000040037007100070000000000010037008F
:10464000000000000080FA00000006000000FA00F0
:104650006500070000902000D1032000BE04070081
:104660005C0007000080FA00000006000400FA0069
:1046700000C0EB00104798000040EB00004F7800AE
:104680004E0037001E80FB006600B90080007800F5
:104690002097200000804000100798001E00900026
:1046A000104078000080FB00E10F50001100320044
:1046B000E20F50002C0032000000E0003B003A0006
:1046C0001E00900090009000C0032000808F5000DA
:1046D000380036001E009000900090001E009000F0
:1046E000210098001E00900011C0B300014878001E
:1046F000310037001E0090009000900080BB200029
:10470000808F5000070036009E40780063C0400054
:10471000104798001E00900021C0B30001487800A7
:10472000250037001E009000900090001E009000B1
:1047300020009000808F5000060031009E407800DD
:10474000114798001E00900021C0B3000148780076
:10475000190037001E009000900090001E0090008D
:1047600021009800140037001E0090009000900077
:104770001E00900020009000808F50000600310045
:104780001E0090008040EB00014878000C68EF00AC
:104790000E28EF00080037001E00900090009000E7
:1047A0001E00900021009800030037000000000068
:1047B00001003700000000001E4FE8001E40780096
:1047C000E14F5000AFFF36001E4090000080FA001D
:1047D000000006000000FA004FFF0700D522A800E5
:1047E0000080FA00000006000000FA0058FF0700F1
:1047F000D522A9000080FA00000006000600FA0099
:104800000000EB00000F7800823E2000813E200077
:104810000040EB0027FD0700110020000040EB00E6
:10482000F4FC07004A0007000004E0001400320016
:1048300006030700100798000000EB00000F780047
:10484000090037000103070020079800AE00900020
:104850001E009000008050001E0F4000AE0090002F
:104860001107980026FC0700F0E124009E00780064
:10487000808F5000F3FF3600DBFF07000100370098
:10488000000000000080FA00000006000000FA00AE
:104890005040800010007800E20F500003003A0002
:1048A0001000200034000700010037000000000065
:1048B0000080FA00000006000000FA00504080006E
:1048C00010007800E20F500006003A00200020009F
:1048D000290007000004E000030032000EFF07007B
:1048E00001003700000000000080FA000000060010
:1048F0000000FA00D022A90081368000F00F2E00BF
:104900008080600000302000010070008036880048
:10491000D042A8002135800000FE2F0000806000FA
:104920002001B300203588000080FA000000060056
:104930000000FA0072000700ED4F500002003A003C
:1049400020962000B50007000080FA000000060055
:104950000000FA00A096200031C5B300014878009D
:1049600011C0B300A09620008A00070010C0B30059
:104970000080FA00000006000200FA00000F780034
:10498000A096200021C5B300014878001E007800E1
:10499000004078000043B00080407800B0962000CE
:1049A0000148780021C0B300A096200079000700DC
:1049B00010C0B3000080FA00000006000C00FA00EE
:1049C00040079800214F980030C0B300004F780096
:1049D0000040EB00104798000000EB001007980023
:1049E000410037001E4090000080FB00E10F5000A6
:1049F0001B003200E20F5000300032000000E000E7
:104A000038003A0000C8200001002000D20307004F
:104A10003B000700ED4F50000E003A0020962000AA
:104A200090407800F0C4B30080CF500007003A00F7
:104A30003096200090407800B0C4B30080CF500082
:104A400002003A0010C0B3002B0037000040EB001A
:104A50002900370010C0B30010479800220037002B
:104A60001E4FE9001E4078000004E00002003A00FA
:104A70000040EB0020003700740207002007980078
:104A80000000EB001007980020C0B300104798000A
:104A9000150037006D02070030079800BE00900037
:104AA0002E009000008050009E009000008040008A
:104AB00010079800BE009000210798009E0090000B
:104AC00030062000808F5000F2FF3600AE48900084
:104AD0004E0090002F0007000040EB0010479800A8
:104AE00001003700000000001E4078000004E000D4
:104AF000BCFF3A000040EB000080FA000000060016
:104B00000200FA0070C0B300004F78001A003700AE
:104B10004DFD0700004F78001E407800ED4F50001B
:104B200007003A001CC8BF000080FB00219620004F
:104B30000041EB00827078001C68EF000E00370027
:104B40001E407800EA4F50000B0032001CC8BF0026
:104B50000080FB00219620001E41780082707800C2
:104B60001CC8BF00E64F500003003E001CC8BF0039
:104B70000040E8001CE8B7009CFD070062006000F0
:104B80000000E000E2FF3A001E4078000080FA00DA
:104B9000000006000800FA0020079800614798000E
:104BA0000000EB00000F7800120037008FFD0700B7
:104BB000100798001E009000700060000000E000E8
:104BC0000C0032006E4090000080FB009E00500000
:104BD0002E0090001E0040006BFD07001E0F4000DD
:104BE0006E4090000080FB009E0F500006003600D3
:104BF000000000006E4090000080FB009E0F5000FF
:104C0000EAFF3E000100370000000000D0C0B30002
:104C100042FD07000080FA00000006000400FA00D0
:104C2000881F7800100798001E0090001040780040
:104C30000000FB0041052000810F50001B003200E6
:104C400041052000810F500007003C009104200026
:104C5000810F50000B00320031052000810F500001
:104C60000F0032003B00370061052000810F50002B
:104C70002400320061072000810F5000150032002F
:104C8000340037005040800010007800E30F5000DF
:104C90000100320013FE0700340007003000370027
:104CA0002BFE0700310007002D0037005840800020
:104CB0001E0090000000E800A20020008E00780096
:104CC000ABF90700000078001004980027000700E7
:104CD000230037001E00900090407800A09620002E
:104CE000014878005200200081BC2900B0962000C5
:104CF00098F9070041C0B300A0962000A5FF070067
:104D0000170037001E00900090407800A096200009
:104D100001487800B096200021C7B3000148780010
:104D2000C096200051C6B30001487800D0962000FC
:104D300061C7B30001487800E096200011C3B300BA
:104D40000148780051C0B300A096200091FF0700F1
:104D50000300370070C0B300F0FC07000000000043
:104D60004F0478000080FA00000006000000FA00FE
:104D7000A0962000F1C4B30001487800B09620004E
:104D8000B1C4B3000148780021C0B300A096200050
:104D900080FF07000080FA00000006000000FA0013
:104DA00060002000800C8800C0002000900C88006B
:104DB00000642000A00C880000322000B00C8800A5
:104DC0009821EF00800C8000004078006740600070
:104DD0000080FB00C04088008440A9009440A800E7
:104DE0000080FA0000000600801F78000000FA0032
:104DF00020048000640060000000E0000100320038
:104E00008440A9000080FA004F00780000400600AE
:104E10000000FA00C0408000004078006740600059
:104E20000080FB0067006000820C800081FF2F0083
:104E30008100610001007000800C88000080FA0091
:104E4000000006000000FA00800C80000000A100B5
:104E50000010A1000020A100800C88000080FA0052
:104E6000000006000200FA00000F78009E007800A3
:104E7000B10C88000080FA00000006000400FA006F
:104E8000000F7800110798009E007800B10C880090
:104E90009E009000A10C88000080FA00000006002F
:104EA0000400FA00000F7800110798009E007800B7
:104EB000B10C88009E009000A10C88000080FA00D0
:104EC000000006000400FA00000F780011079800A7
:104ED0009E007800B10C88009E009000A10C880014
:104EE0000080FA00000006000200FA00000F7800BF
:104EF0009E007800A10C88000080FA0000000600E7
:104F00000200FA00000F78009E007800B10C8800C3
:104F10000080FA00000006000000FA002004800073
:104F20004200DE00614060000080FB0000F0A7004E
:104F30000000EA000000EA004F00DE0000407800B8
:104F40000080FA00000006000400FA001007980034
:104F50001E009000E10F50000F003200E10F5000E2
:104F600003003900E20F5000150032001E00370028
:104F7000800C80004400DE00614060000080FB0087
:104F800000F0A7000000EA000000EA004F00DE0089
:104F9000004F780014003700800C80004500DE00D0
:104FA000614060000080FB0000F0A7000000EA0004
:104FB0000000EA004F00DE00004F78000A003700D2
:104FC000800C80004600DE00614060000080FB0035
:104FD00000F0A7000000EA000000EA004F00DE0039
:104FE000004F7800000000001E4078000080FA00AA
:104FF000000006000200FA00000F78001E00780092
:10500000E10F500007003200E10F500003003900AB
:10501000E20F500005003200060037009081A90021
:105020000400370090A1A9000200370090C1A90038
:10503000000000000080FA00000006000000FA00F6
:1050400092C1A8000080FA00000006000000FA00EB
:10505000900C80004600DE00614060000080FB0094
:1050600000F0A7000000EA000000EA004F00DE00A8
:10507000004078000080FA00000006000000FA00FE
:1050800092C1A9000080FA00000006000000FA00AA
:10509000C102A90050408000C10320001100980007
:1050A0001A28EF00020007000080FA000000060046
:1050B0000000FA00C502A8000080FA000000060007
:1050C0000000FA00C502A9000080FA0000000600F6
:1050D0000000FA005040800010007800E20F5000FD
:1050E00002003200F6FF0700190037005040800030
:1050F00090009000D0408000808F5000130032005C
:10510000504080009000900050032000808F50009D
:1051100002003400E6FF070008003700504080001E
:1051200090009000C0022000808F500002003C00E0
:10513000E3FF070001003700DDFF0700504080005B
:1051400010009000D04088000100370000000000EF
:105150000080FA00000006000E00FA0060079800C8
:10516000A000200001002000008FBE001E00BE0035
:10517000E00F5000E08F580002003A000000EB0002
:105180002C0037001E01BE0010042000010020008A
:1051900060F8070020079800310798006E00900023
:1051A000CF80DE00C002B1000180B100400798004E
:1051B000510798004E009000DE0090002E019000F4
:1051C0000191B90002017800BE019000009AB90077
:1051D0008401780003014100AE0190000018B8007E
:1051E00001014100820078003002B0000180B0006F
:1051F00040079800510798004E009000DE00900094
:10520000823E20000300200033F80700400798008A
:10521000510798004E009000DE009000E00F500013
:10522000E08F580002003D000000EB000100370055
:105230004E0090000080FA00000006000200FA0014
:10524000000F78005040800010009000C2FF07005F
:10525000020007000080FA00000006000600FA00C5
:1052600020079800600880000000E9006101B80094
:105270002E0090008000EB00009AB9000402780034
:10528000028BB90086027800050242000010B800C7
:105290000102420084007800420620000289B90021
:1052A000020178006002B900840178000301410026
:1052B000430620000300B80001014100820078008D
:1052C000008FBE00008FBE001E00BE0002712200D3
:1052D000030020000FF80700008FBE001E007800BA
:1052E00007FF07001E007800FFFE07000080FA009D
:1052F000000006000000FA000021EF0000E8230093
:105300001008880000002800200888008460A90098
:105310009460A8001268EF000080FA000000060008
:105320003600F800809FBE00829FBE00849FBE00B2
:10533000869FBE000000FA002600070013C8BF00C9
:105340000040E80013E8B700A04080000000E8003B
:10535000A040880010C0B30012E8B7008460A90024
:105360000080FA004F03BE004F02BE004F01BE0096
:105370004F00BE003600F900004006000200FA00AF
:10538000000F78009E007800110888001268EF0076
:105390000080FA00000006000000FA0010088000FB
:1053A0000080FA00000006000200FA00000F7800FA
:1053B0009E007800010888001268EF000080FA0063
:1053C000000006000000FA00000880000080FA00DB
:1053D000000006000000FA000080FA00000006004D
:1053E0000000FA001268EF009460A80005E1A80030
:1053F0000080FA00000006000000FA0005E1A900A4
:105400009460A9000080FA00000006000200FA0083
:105410002181200091407800014F78001E407800E3
:105420000004E000010032001268EF001E40780026
:105430000080FA00000006000000FA0013C8BF0058
:105440000080FB000080FA00000006000000FA0067
:10545000A04080000080FA00000006000000FA0072
:105460001368EF000080FA00000006000000FA0058
:105470000621EF0000E823006008880000002800F3
:1054800080088800209820008040EB0001487800C8
:105490000080FA00000006000000FA0021048000ED
:1054A00000082000008060000000E00009003200D9
:1054B00030982000104078008040E80030982000AC
:1054C000014878002098200011C0B30001487800FE
:1054D00084E0A9000080FA00000006000200FA0043
:1054E000000F78009E007800610888002098200056
:1054F0008040EB00014878000080FA0000000600C0
:105500000000FA00600880000080FA000000060039
:105510000200FA00000F78009E0078003108880031
:10552000209820008040EB00014878000080FA00BD
:10553000000006000000FA00300880000080FA0039
:10554000000006000000FA00209820008040EB00D8
:105550000148780011E1A8000080FA000000060070
:105560000000FA0011E1A9000080FA000000060026
:105570000200FA0020982000104F78001E407800AA
:105580000004E00003003200209820008040EB007F
:10559000014878001E4078000080FA0000000600F4
:1055A0000000FA0030982000104078000080FB00D6
:1055B0000080FA00000006000000FA003098200089
:1055C0008040EB00014878000080FA0000000600EF
:1055D0001208000004000000000000004209000062
:1055E000200000000000000016080000020000007B
:1055F00002000000FFFF00001E08000092000000F3
:10560000000000008209000002000000000000000D
:105610001808000002000000000000001A08000046
:105620000200000000000000FA080000480000002E
:10563000000000000008000006000000000000005C
:1056400006080000060000000000000072090000CB
:105650000C000000000000000C0800000600000024
:1056600000000000620900001000000000000000BF
:105670001C0800000200000000000000B00800004C
:105680004A0000000200000030313200333435009F
:105690003637380039616200636465006667680008
:1056A000696A6B006C6D6E006F70710072737400CC
:1056B0007576770078797A000000000021151100D6
:1056C0000E0D0C000B0B0A000A090900090909005C
:1056D000080808000808080008070700070707006F
:1056E0000707070007070700070700007E090000FB
:1056F0000400000000000000D22C80000600FA0028
:1057000025000700A200070024F8070034FB07006B
:105710005EFE070076FC070011C0B30010C0B300A6
:10572000B7F8070011C0B30020C0B300B4F80700F9
:1057300011C0B3000040EB00B1F807000000EB001F
:105740001007980041FF0700200798000900370064
:105750003EFF0700200798002E0090001E0050001A
:105760009E0090000080400010079800AE0090005E
:10577000010F78009E00900070BB2000808F5000C9
:10578000F3FF360022FB070051FE070068FC07000C
:105790005BF80700FBFF37000000FA005B00070022
:1057A000070007003D00070093F907007BFD070095
:1057B0002EFF0700CFFE07000080FA000000060061
:1057C0000200FA0080252000000F78000001EB00A5
:1057D00060042000710520002374200080497800B7
:1057E000814978008249780000122300203A88001D
:1057F000000000001E00780000F0A7000000EA0092
:105800000000EA004F00DE00004078001E0FE900B3
:105810000004E000F7FF3A004827EF004E27EF00B2
:105820004027EF000080FA0000000600000F78001B
:105830009E007800B1408800FFFF37000000FA00AA
:105840002094200080077800A095200000018800A7
:105850000080FA00000006003600F8008020A90051
:105860000000EB00F1FF07003600F800F3FF07002F
:105870008040A90010002000ECFF07003600F8006F
:105880008060A90020002000E8FF07003600F80033
:105890008080A90030002000E4FF07000000FA002B
:1058A000200580000080A0000090A10000A0A100C1
:1058B000200588002005800000C0A00000D0A100C5
:1058C00000E0A10020058800200680000040A00024
:1058D0000050A1000060A100200688005005800053
:1058E0000000A0000010A1000020A10050058800C9
:1058F0004005800000C0A00000D0A10000E0A10091
:10590000400588000080FA00000006000000FA0050
:10591000C422EF00CC22EF00D422EF00F079200067
:1059200000168800F0FB2E0040168800F03F200093
:10593000801688006820EF006A20EF00C622EF0082
:10594000CE22EF00D622EF000080EB006019880025
:105950000080FA0000000600F03FB1000180B100B5
:1059600006003500EE03090000000000403FB100D2
:105970000180B100FBFF3D001000B000203FB000EF
:105980000200350000800900000000000000060051
:105990000000FA0060802000504088000080FA007B
:0859A0000000060000000000F9
:020000040001F9
:1057F00033FF0000FFFF00009F890000603D0000B4
:00000001FF
