:10000000C0180400000000000418000008180000D8
:100010000C1800001018000014180000BC18000094
:10002000BC180000BC180000181800001C180000C4
:100030002018000024180000BC1800002818000038
:100040002C18000030180000341800003818000088
:100050003C18000040180000441800004818000038
:10006000BC180000BC1800004C180000501800001C
:1000700054180000581800005C180000BC1800005C
:10008000BC180000BC180000BC180000601800007C
:1000900064180000681800006C1800007018000058
:1000A00074180000781800007C1800008018000008
:1000B000BC180000BC180000BC1800008418000028
:1000C000881800008C180000BC1800009018000070
:1000D000BC180000BC180000BC18000094180000F8
:1000E000BC180000BC180000BC18000098180000E4
:1000F0009C180000BC180000BC180000BC180000D0
:10010000BC180000BC180000BC180000BC1800009F
:10011000BC180000BC180000BC180000BC1800008F
:10012000A0180000BC180000BC180000A4180000B3
:10013000A8180000AC180000BC180000BC18000093
:10014000BC180000BC180000B0180000BC1800006B
:10015000BC180000BC180000BC180000B418000057
:10016000BC180000BC180000BC180000BC1800003F
:10017000BC180000BC180000BC180000BC1800002F
:10018000B8180000BC180000BC180000BC18000023
:10019000BC180000BC180000BC180000BC1800000F
:1001A000BC180000BC180000BC180000BC180000FF
:1001B000BC180000BC180000BC180000BC180000EF
:1001C000BC180000BC180000BC180000BC180000DF
:1001D000BC180000BC180000BC180000BC180000CF
:1001E000BC180000BC180000BC180000BC180000BF
:1001F000BC180000BC180000BC180000BC180000AF
:1002080068190000681900006819000068190000E2
:1002180068190000681900006819000068190000D2
:1002280068190000681900006819000068190000C2
:1002380068190000681900006819000068190000B2
:1002480068190000681900006819000068190000A2
:100258006819000068190000681900006819000092
:100268006819000068190000681900006819000082
:100278006819000068190000681900006819000072
:100288006819000068190000681900006819000062
:100298006819000068190000681900006819000052
:1002A8006819000068190000681900006819000042
:1002B8006819000068190000681900006819000032
:1002C8006819000068190000681900006819000022
:1002D8006819000068190000681900006819000012
:1002E8006819000068190000681900006819000002
:1002F80068190000681900006819000068190000F2
:1003080068190000681900006819000068190000E1
:1003180068190000681900006819000068190000D1
:1003280068190000681900006819000068190000C1
:1003380068190000681900006819000068190000B1
:1003480068190000681900006819000068190000A1
:100358006819000068190000681900006819000091
:100368006819000068190000681900006819000081
:0C037800681900006819000068190000F6
:10300000C01804000000000068190400000000005F
:103010008C3C0400000000009E3C04000000000006
:10302000943C040000000000A63C040000000000E6
:103030006819040000000000681904000000000086
:103040009E35040000000000363804000000000037
:103050006819040000000000681904000000000066
:103060006819040000000000681904000000000056
:103070006819040000000000681904000000000046
:10308000CE30040000000000783004000000000092
:103090006819040000000000681904000000000026
:1030A0006819040000000000681904000000000016
:1030B0006819040000000000681904000000000006
:1030C00068190400000000006819040000000000F6
:1030D00068190400000000006819040000000000E6
:1030E00068190400000000006819040000000000D6
:1030F00068190400000000006819040000000000C6
:1031000068190400000000006819040000000000B5
:1031100068190400000000006819040000000000A5
:103120006819040000000000681904000000000095
:1031300068190400000000000822040000000000DC
:1031400068190400000000001431040000000000B1
:103150006819040000000000681904000000000065
:103160006819040000000000681904000000000055
:103170006819040000000000681904000000000045
:10318000EFB620000E7F22000E0188000000000034
:10319000000020000000E0000200320000012000DA
:1031A000200288000C00070040A12300010020003D
:1031B00011000700000020000000E00002003200C3
:1031C00000000200000000008E3B02000000000032
:1031D0000040DA000000FE004440A9000001200089
:1031E0000000E0000300320000002000A001880081
:1031F0004440A8000000060091018800800078008B
:103200000000EB0015003700E280400032A0B4005F
:103210009101BA00E280400032A0B4009102BA00ED
:10322000E280400032A0B4000002EB00472BDE0039
:10323000F507B200602CE10004003A000059EB00F1
:103240008301E900FDFF3E00040037006128E10032
:10325000010032000082EB000B00070011C3BA002E
:103260001101BA000604E00003003A000200E00089
:10327000E5FF3A0000000600F607B200960188005C
:1032800082007800F5FF37003159BA008301E90068
:103290000C0032002159BA008301E9000800320015
:1032A0000400E00003003A00E280400032A0B400D5
:1032B000F5FF370011D9BA008301E900FAFF3A009F
:1032C0008100E800E180400032A0B4000000060068
:1032D0000040DA000000FE00839F68000100E0006B
:1032E00002003D0060001000E08018000300E000D4
:1032F00002003D0060011100E08119000500070097
:103300004F00E00002003B0060001000E080180069
:10331000000006006022B800060220000000D00075
:103320008180D2000482D2008582D2000000A000F9
:103330000202520083825A0003003100020242005E
:1033400083824A000000A1000603E900F3FF3A006F
:10335000000006000900370030427800B1417800D3
:10336000834F52000400320010002000060031009C
:103370000080EB00000006000201E9000200E0000E
:10338000F5FF3A000000EB00000006008001780025
:1033900002003700B15978000201E9000200E000A4
:1033A000FCFF3A00000006008001780002003700B0
:1033B000815978000201E9000200E000FCFF3A00B8
:1033C000000006000C003700B0417800B1CF51007A
:1033D00006003200100020009542780094CF520081
:1033E0000B0031000080EB00000006000304E00049
:1033F000060032000201E900010278008002780034
:103400000200E000F0FF3A00000005000000EB00C1
:1034100000000600E4874700889FBE008A9FBE0028
:103420008C1F78008E1F7800000578000107780057
:10343000020678000E00E00001003A006E87570097
:103440008A0578008B047800890578003B44780071
:103450000800FB00D20007000000E000F9FF3A007E
:10346000D0C2B300804F54000300320000C0E90016
:10347000804F540002003A008904E8000100370040
:10348000004478000C0178008E0078000900780074
:10349000290007009E8F540001003A000A0F7800AF
:1034A0009E0F550003003A00E00F5000E08F5800D7
:1034B0000F003A00B2C2B300824F540004003A0039
:1034C000E00F5000E08F580015003D000800370065
:1034D000D2C2B300824F540011003A000200200013
:1034E00003002800820F5000838F58000A00360026
:1034F00020022000405B8800F0FF2F00F1FF270032
:10350000D2C2B300824F540005003A0000002000F0
:10351000010028000200370060001000E080180061
:103520004F0778004F0678004F05BE004F04BE00DD
:103530004F00B10000000600EE874700889FBE00E4
:103540008A9FBE008C9FBE008E1F7800F0B79F0040
:1035500001067800820578000004780008057800EC
:103560000A047800B84678000D00FB008C000700C4
:103570000000E000F9FF3A00D0C2B30080CF56004F
:103580000300320000C0E90080CF560002003A007C
:103590000A05E80001003700804678000B00E000D3
:1035A00005003500E18F5500030032004002200085
:1035B000808F5500060034006044B8000C00E00025
:1035C000700032007FB09700000E78006D00370069
:1035D0000B00E0000E003200F08F55001A003A0098
:1035E00000C3B3009A4F100017003A001A40900031
:1035F00081C7B300814F50000300320081C5B30082
:10360000814F500010003A000A85E8000E00370094
:10361000AB00200000C3B3009A4F10000A003A002C
:103620001A40900081C7B300814F5000040032005F
:103630008B00200081C5B300814F500002003A008A
:103640000A85E8000B0120000A00780000027800DB
:103650000400780001C3B300B0CF1000FBFF3200BC
:10366000040778006044B800B4B79F000D0037002D
:10367000C1A4200081405000C1EF9F006159B900F2
:103680000800BE00650007004FEA97000401FB0038
:10369000CF91DE00C8B79F00D9B79F000204400059
:1036A000838448008E0278003E00FB0085BF9F00A7
:1036B000430007000B01780080007800C0A42000C0
:1036C0004C0007008FBA97000000E000E8FF3A00C6
:1036D0003FB29700850F550005003A006044B800DE
:1036E0000C00E00027003200FFB2970024003700F2
:1036F0000482520010A7200060C07D000000FB0083
:10370000000252001700330011003A004FE9970001
:103710000200FB00CF80DE000000540081805C00CE
:10372000800F5400818F5C00090039006159B90095
:1037300085BF9F00F7FE07008FBA97004FB1970033
:10374000DFB19700820F5000838F580005003200D0
:1037500020022000405B88000084EB008084EB00A6
:1037600005003700D0C2B30080CF560002003A00F7
:1037700060041400E0841C000C00E0000100320032
:10378000050E78000800BE004F0778004F06BE0007
:103790004F05BE004F04BE00EF00B1000000060060
:1037A0006900E100040035006D00E1000300340011
:1037B0000002B10001003200000005001000050009
:1037C000800078001104B100030035009101B100C0
:1037D00001003C000050A00000000600505B80008B
:1037E0000000E000010032000000010080B620006F
:1037F0000000060003003700B0CF100005003200C3
:103800000201E900800178000200E000FAFF3A00BE
:10381000000005000300780000000600020AB9005D
:10382000001BB9000200B800810042008100430083
:1038300000000600312E0000322E00003239000058
:103840002E3300000000000000000000FF00000018
:10385000FF0000000000FA00C9A2A80069A0A800AB
:103860000080FA00000006000A00FA002007980015
:1038700032079800430798006000B800008FBE0030
:103880000400370012002000030020001E0F41003A
:103890005E9749003E009000CE0090001E01BE00E1
:1038A000800F5100818F5900F6FF39000080FA0027
:1038B000000006000A00FA0020079800320798006E
:1038C000430798006000B800008FBE000400370076
:1038D00012002000030020001E0F41005E974900E7
:1038E0003E009000CE0090001E01BE00800F5100EF
:1038F000818F5900F6FF39006000B800008FBE00CC
:103900000400370012002000030020001E0F4100B9
:103910005E9749003E009000CE0090001E01BE0060
:10392000800F5100818F5900F6FF39000080FA00A6
:10393000000006000400FA0040AE200021C0B300E1
:1039400001487800823E200011C0B300E0AD2000A5
:10395000370007000004A2000004E000020032006B
:103960006000B80030003700823E2000C1C0B300C4
:10397000E0AD20004C020700E24F400002003A0098
:103980006000B80028003700E0AD20006200200091
:1039900021B620008BFE07000000E000020032008C
:1039A0006000B8002000370050AE200010407800C2
:1039B0000080FB008000EB00C800DD00000020005C
:1039C000008FBE0060AE2000104078000080FB0039
:1039D0008000EB00C000DD00000020001E1F700012
:1039E0001E97700070AE2000104078000081FB0030
:1039F0008001EB004818DD00C810DE008100700077
:103A00004810DD001E1F70001E97700070AE200071
:103A1000104078000080FB008000EB001E1F70004B
:103A20001E9770001E00BE000080FA000000060015
:103A30000600FA00000F780021479800220798003E
:103A4000AE4090001E0078007C010700FB010700DB
:103A50000004A2000004E000020032000040EB007D
:103A60000100370010C0B3000080FA00000006001B
:103A70000000FA0040AE200041C1B30001487800C8
:103A800050AE200011C0B3000148780060AE2000A5
:103A900041C1B3000148780070AE200011C0B300EE
:103AA00001487800823E200041C0B300E0AD200014
:103AB000DFFF07000004A2000004E0000200320063
:103AC0000040EB000F003700823E200081C0B300B1
:103AD000E0AD2000F4010700E24F400002003A0090
:103AE0000040EB000700370030AE200010407800A7
:103AF00050C1B2000080FB000000E9004F00DE0072
:103B0000004078000080FA00000006000C00FA0077
:103B1000000F78002147980022079800330798008B
:103B2000044F98005507980040AE200001C4B30030
:103B30000148780050AE200011C0B3000148780061
:103B40000E4890000004E0000200320010C6B300EE
:103B50000100370000C6B30061AE20008048780045
:103B60002E0090008040780070AE20000148780060
:103B700080AE200062002000DE00900003FE0700FF
:103B80002E4090008080FB00E0AE20000101780014
:103B90009E007800FDFD07002E4090006A40400026
:103BA000823E200080407800E0AD2000A0FF0700AA
:103BB0000004A2000004E000020032000040EB001C
:103BC0000F003700823E2000C1C0B300E0AD2000EE
:103BD000B5010700E24F400002003A000040EB0050
:103BE0000700370050AE2000104078000004E000CD
:103BF000020032000040EB000100370010C0B300AB
:103C00000080FA00000006000400FA00004F78006F
:103C10001107980040AE200001C4B30001487800AD
:103C200050AE200011C0B3000148780060AE200003
:103C300001C3B3000148780070AE20001E48780030
:103C4000823E200041C0B300E0AD200078FF0700B5
:103C50000004A2000004E000020032000040EB007B
:103C60001C003700823E2000A1C1B300E0AD20005F
:103C70008D010700E24F400002003A000040EB00D7
:103C80001400370050AE2000104078000004E0001F
:103C900006003200A201200003002000E0AD200059
:103CA00004FF07000040EB000A00370060AE200070
:103CB00002012000800078001E009000B3FD070084
:103CC00002012000030020001E009000E6FE070015
:103CD00010C0B3000080FA00000006000400FA00E3
:103CE000004F78001107980040AE200001C4B300D7
:103CF0000148780050AE200011C0B30001487800A0
:103D000060AE200001CAB3000148780070AE200008
:103D10001E48780080AE2000020120009E00900026
:103D20009AFD0700823E200041C1B300E0AD2000B3
:103D30003FFF07000004A2000004E0000200320080
:103D40000040EB000B003700A0002000400D0700F2
:103D5000823E2000A1C1B300E0AD20005201070067
:103D6000E24F400002003A000040EB000100370043
:103D700010C0B3000080FA00000006000A00FA003C
:103D800020479800210798003207980043079800C1
:103D900040AE2000A1C4B3000148780050AE20001E
:103DA00011C0B3000148780060AE2000AE40900022
:103DB000014878004E01900031C0B300E0AD200012
:103DC0001BFF07000004A2000004E0000200320014
:103DD0000040EB00230037004E01900041C1B300CA
:103DE000E0AD200030010700E24F400002003A0041
:103DF0000040EB001B00370050AE20001040780060
:103E0000E14F5000020032000040EB001500370087
:103E1000A0AE2000904078003E009000014878005D
:103E20000040EB00004F7800090037001E80FB00C7
:103E3000AE009000008040009E80FB00ED804000BE
:103E4000E2AD2000E2C07800014878001E4FE80093
:103E5000A0AE2000104078009E4F5000F3FF3E00BF
:103E600010C0B3000080FA00000006000400FA0051
:103E7000008FBE00F0072000010020001E01BE00E0
:103E8000800F5100818F590017003E001E01BE00B7
:103E900030002000010020000202780003017800B9
:103EA00080017800010078000302620000006100D8
:103EB0008000EB00C000DD00000020000001BE001B
:103EC0006120B800000171008181710002807100E1
:103ED00000F0A7000000EA000000E9004F00DE004B
:103EE00000407800160037001E01BE00F0002000E0
:103EF00001002000020278000301780080017800B0
:103F00000100780003026200000061008000EB0005
:103F1000C000DD00000020000001BE006120B800EC
:103F200000017100818171000280710000F0A70022
:103F30000000EA000000E9004F00DE0000407800C9
:103F40000080FA00000006000400FA00008FBE00A6
:103F5000F0072000010020001E01BE00800F51006C
:103F6000818F59001A003E00140020000500200037
:103F70003E014200AE814A003000200001002000D6
:103F800002027800030178008001780001007800C7
:103F900003026200000061008000EB00C000DD0051
:103FA000000020000001BE006120B8000001710087
:103FB000818171000280710000F0A7000000EA001A
:103FC0000000E9004F00DE000040780019003700D3
:103FD00014002000050020003E014200AE814A008E
:103FE000F0002000010020000202780003017800A8
:103FF0008001780001007800030262000000610087
:104000008000EB00C000DD00000020000001BE00C9
:104010006120B8000001710081817100028071008F
:1040200000F0A7000000EA000000E9004F00DE00F9
:10403000004078000080FA00000006000800FA0046
:1040400020079800614798006E4090000040E8000B
:1040500060479800200020007D0C070000C0EB00A6
:10406000004F78002E0090008040EB00014878005F
:104070002E0090000000E8008040EB00014878002E
:104080002E0090000080E80080C0EB00014878001E
:104090002E00900063004000EE4090000148780040
:1040A0002E00900064004000EE4090008140EA0045
:1040B000014878002E0090006500400041CDB3001B
:1040C0000148780040CDB3001E4F40000040EB0097
:1040D00010479800030037001E4090000040E800A1
:1040E000104798001E409000E54F5000FAFF360040
:1040F0000040EB00104798000A0037001E40900077
:104100000080FB0066004000AE0090000080400090
:10411000104078001E4F40001E4090000040E80014
:10412000104798001E4090008080FB006E40900079
:104130000080FB000000E900808F5000EFFF350099
:104140006E40900065404000204798002E4090004F
:104150000080FB00AE009000008040009EC0EA009E
:10416000014878002E4090000080FB000000E8002D
:10417000AE009000008040008040EB0001487800D5
:104180006E4090006740400042C2B300804078001B
:104190002E009000700C07000080FA00000006005E
:1041A0000800FA00300798000000EB00000F7800CC
:1041B0000B0C070020079800AE0090001107980034
:1041C0000C0037003E0090000000E00009003200C3
:1041D00064004700100C07001E0F40003E009000D6
:1041E0009E007800808F5000020039000040EB00F4
:1041F00005003700060007000004A2000004E000EC
:10420000F0FF3A0010C0B3000080FA000000060082
:104210000000FA00511680000000220000806000BB
:1042200000F0A7000000EA000000E9004F00DE00F7
:10423000004078000080FA00000006000E00FA003E
:10424000E100470042C2290005000900B258780089
:10425000670047005200200061C0B3001200070051
:10426000670047008E00E8006200200055FC070050
:104270000000E00009003A000040EB00004F780029
:10428000010037001E4FE8001E407800E54F500047
:10429000FCFF360010C0B300010037000040EB0007
:1042A0000080FA00000006004A00FA00202798006B
:1042B00061C79800422798000000EB00000F7800CB
:1042C000030037000000000001003700000000007C
:1042D00010002000DE0B07006EC0900080C0E800D8
:1042E0006300470042C2B300E70B07003E40900066
:1042F0000080FB0061006000004078000004E000E6
:10430000030032000040EB00204798001700370000
:104310001E0FE8004E2090000000E000E9FF320090
:104320004E2090009E007800808F5000E7FF3900FB
:10433000E0CFB300120037002E4090000080FB0059
:10434000AE20900000804000AE4090008180FB00D5
:104350008100E80081004700B140900001487800EA
:104360002E4090000040E80020479800AE409000AA
:104370006EC0900080CF5000EFFF390010C0B30036
:104380000080FA00000006000000FA000080200013
:10439000E1B320001100980000802000E1B320006C
:1043A0000108780001802000210090000010A0008A
:1043B000A000980001802000210090000000A100D2
:1043C000A0009800008020008040EB006140980031
:1043D000D0092000A010880000002800B01088003C
:1043E0001822EF008A40A9009A40A8000080FA0035
:1043F000000006000200FA0000802000E04090006B
:10440000014F78001E4078000080FA00000006008E
:104410003600F800809FBE00829FBE00849FBE00D1
:10442000869FBE000000FA008A40A900C1108000EB
:1044300000082000008060000000E000080032005A
:1044400018E2A9000828EF007040800020009000CA
:104450008000EB00010878000E28EF000D01370006
:10446000404080008000EB00B200200003002000EC
:10447000820F5000838F5800FC003E000060010056
:104480000B00370039003700750037009C003700FB
:10449000F3003700C8003700D9003700F0003700BC
:1044A000DB003700F10037003400370050003700E0
:1044B0000080200020009000620060000000E0000A
:1044C000F3003A0000802000100090007040880047
:1044D0000080200010009000104078000AE8B7002B
:1044E00000802000100090001000900060408800C4
:1044F0000080200010009000E600400000802000B6
:1045000011009800008020009000900040B420002E
:10451000808F500003003A0000802000E1B32000AB
:104520001100980001802000210090000000A100EF
:10453000A0009800008020009000900000802000E3
:1045400010007800808F500004003A0001802000A5
:10455000210090000010A000A00098001602A80002
:104560002000200040408800CA0037001622A80022
:104570002000200040408800C6003700C1108000A5
:1045800000002800008060000000E0000800320009
:1045900000802000604090008040E8000080200003
:1045A0006140980040002000D2000700B9003700A9
:1045B000804080008000D100F00F2000008060006B
:1045C000901088008040800061006000004078000A
:1045D0000004E00003003200B000200040408800EA
:1045E000AC0037003000200040408800A9003700B0
:1045F000C110800000002800008060000000E00082
:104600000800320000802000604090008040E800F8
:10461000008020006140980040002000B5000700A5
:104620009C0037001622A800804080004800DE0071
:10463000E6006000000F200001007000804088004C
:10464000804080000000A0008040880010C0B300BF
:1046500012E8B70020002000404088008D0037009D
:1046600012C8BF00E14F50000A00320060408000D5
:10467000100078008040880060408000200090009A
:10468000A0408800604080002040900016E8B700FD
:10469000010037001268EF0081408000F00F200019
:1046A000808F500009003600804080004800DE0006
:1046B000E6006000000F20000100700090108800EC
:1046C000A000200040408800720037008040800039
:1046D00090108800804080006100600000407800F9
:1046E0000004E00003003200500020004040880039
:1046F0006800370030002000404088006500370027
:10470000C110800000002800008060000000E00070
:104710000900320000802000604090008040E800E6
:10472000008020006140980019E2A900500020009C
:10473000700007005700370016C8BF008080FB00DC
:104740008100E900CF08DE00814078000040E900E8
:1047500016E8B7000104E00010003200604080005D
:1047600066004000604088000AC8BF000040E900C1
:104770000AE8B7000AC8BF000004E00003003A00DE
:10478000200020005B000700420037001622A8002E
:1047900020002000404088003E003700A0408000FC
:1047A000904078008180FB00911088000000E800B4
:1047B000A040880037003700C110800000002800AA
:1047C000008060000000E00009003200008020004E
:1047D000604090008040E800008020006140980028
:1047E000400020004300070019E2A900290037001B
:1047F0001662A80080002000404088002500370095
:1048000080002000404088001662A8002100370088
:10481000A04080008110800081407800014878002D
:104820000000E800A040880016C8BF000040E90072
:1048300016E8B70016C8BF000004E000040032000C
:1048400016A2A90060002000404088000200370046
:1048500016A2A800160007001682A8000D00370057
:1048600020002000230007000A00370000802000FD
:10487000604090008040E800008020006140980087
:10488000600020001B00070000000000010037004E
:10489000000000000080FA004F03BE004F02BE007F
:1048A0004F01BE004F00BE003600F9000040060078
:1048B0000000FA0060408000660040006040880010
:1048C0000AC8BF000040E9000AE8B7000AC8BF00F4
:1048D0000004E00003003A0040002000404088004F
:1048E0000200370010002000404088000080FA00DD
:1048F000000006000200FA00000F78001642A8002F
:1049000070408000200090000000E00003003200B2
:1049100070408000200090001E0878000828EF00FA
:104920000080FA00000006000800FA00000F78007E
:104930002147980022079800330798000080200044
:1049400020009000610060000000E0000A003A00D2
:10495000AE0190002E4190009E007800A0B420008F
:10496000770007003E019000A1B4200010C0B30002
:104970001F000700030037003E0090008000EB009E
:10498000010878000080FA00000006000800FA0024
:10499000000F7800214798002207980033079800FD
:1049A0000080200020009000610060000000E00016
:1049B0000A003A00AE0190002E4190009E0078005F
:1049C00040B42000460007003E01900041B42000A2
:1049D00010C0B30006000700030037003E0090003F
:1049E0008000EB00010878000080FA00000006005B
:1049F0000600FA00004F780011079800220798007F
:104A00000080200020009000610060000000E000B5
:104A10002E003A002E0090001100200001087800BE
:104A200000802000100078009E0090001100980087
:104A300000802000100078001E48780000802000D0
:104A400010007800AE009000210098000080200047
:104A500010007800E6004000008020000108780087
:104A6000008020009000780040B42000808F50002B
:104A700003003A0000802000E1B320000108780024
:104A800001802000210090000010A100A0009800EB
:104A9000008020009000900000802000100078002E
:104AA000808F500004003A00018020002100900017
:104AB0000000A000A0009800404080000000E0003E
:104AC00005003A008A40A800030037002E0090003D
:104AD0008000EB00010878000080FA00000006006A
:104AE0000800FA00000F780011079800424798006C
:104AF000330798003E0090000000400080007800DE
:104B00001E007800010878001E0078001000780070
:104B1000800078000100A0001E00780001087800E5
:104B20001E007800CE409000214098001E007800C2
:104B30009E009000210098000080FA00000006000E
:104B40000800FA00000F780011079800424798000B
:104B5000330798003E00900000004000800078007D
:104B60001E007800010878001E007800CE409000FA
:104B7000214098001E0078009E00900021009800BF
:104B80000080FA00000006000000FA00008020000B
:104B9000200090000000D100614060000080FB0018
:104BA00000F0A7000000EA000000EA004F00DE006D
:104BB000004078000080FA00000006000000FA00C3
:104BC0000080200020009000614060000080FB0019
:104BD00000F0A7000000EA000000EA004F00DE003D
:104BE000004078000080FA00000006000200FA0091
:104BF000881F7800D002A900C8E2A900C902A90054
:104C00000040EB00004F78004B0037001E80FB0097
:104C10007800B9008000780080AA20000080400061
:104C20008040EB00014878001E80FB007800B9004E
:104C30008000780060A92000008040008000EB0028
:104C4000010878001E80FB007800B9008000780021
:104C5000C0A9200000804000810C200001087800DD
:104C60001E80FB007800B90080007800E0A92000D9
:104C70000080400021032000010878001E80FB0016
:104C80007800B9008000780000AA20000080400071
:104C9000813E2000010878001E80FB007800B900EA
:104CA0008000780020AA200000804000411F2000E2
:104CB000010878001E80FB007800B90080007800B1
:104CC00040AA200000804000411F20000108780019
:104CD0001E80FB007800B9008000780060AA2000E8
:104CE000008040008040EB00014878001E80FB00FF
:104CF0007800B9008000780060AA200000804000A1
:104D00008040EB00114098001E84FB00340907002E
:104D1000000178007840B90080007800A0AA200047
:104D200000804000020878008040EB001E407800C0
:104D3000470007001E4FE8001E407800E24F500079
:104D4000B2FF36004F0478000080FA000000060031
:104D50000600FA0022090700CF80DE001007980045
:104D6000210798000040EB00004F78003300370027
:104D70001E80FB007800B9008000780060A9200048
:104D800000804000204188002041800000509000B9
:104D90000004E000200032003041800041418000EA
:104DA0001E019000AE019000000151008181590068
:104DB00020418000400090008000EB00800F5100F7
:104DC000818F59001C00390020418000A000900014
:104DD0008100E8002100980020418000F5000700D4
:104DE00020418000A0009000204180003000900011
:104DF000808F500003003900204180008040EB008C
:104E0000015098001E019000AE01900032418800D0
:104E100043418800080037002041800010007800DE
:104E20000000E00004003200204180001E019000DC
:104E3000AE019000E30007001E4FE8001E4078001E
:104E4000E24F5000CAFF36000080FA000000060062
:104E50000200FA00004F7800114798001E80FB0006
:104E6000E10F50000E003200E20F50001700320038
:104E70000000E00021003A001E4090006140600008
:104E80000080FB0061006000A2168000E1FF2F009F
:104E90008100610001007000A01688001800370032
:104EA0001E409000614060000080FB0061006000D7
:104EB0004700DD0062168000F1F72F0081006100DD
:104EC00001007000601688000D0037001E40900041
:104ED000614060000080FB00610060004800DD0070
:104EE00062168000F1EF2F00810061000100700068
:104EF000601688000000000001003700000000007C
:104F00000080FA00000006000200FA00004F78005E
:104F10001E80FB00E10F500008003200E20F50003D
:104F20000A0032000000E0000C003A00A0168000E9
:104F30000040780061406000090037006016800082
:104F40004700DE0061406000050037006016800009
:104F50004800DE0061406000010037000040EB00C7
:104F60000080FA00000006000200FA00004F7800FE
:104F70001E80FB00E10F500011003200E20F5000D4
:104F80001D0032000000E0002A003A00A016800058
:104F900000407800614060000004A20061406000B1
:104FA0000080FB0061006000A2168000E1FF2F007E
:104FB0008100610001007000A01688001E0037000B
:104FC000601680004700DE00614060000004A2001F
:104FD000614060000080FB00610060004700DD0070
:104FE00062168000F1F72F0081006100010070005F
:104FF0006016880010003700601680004800DE0050
:10500000614060000004A200614060000080FB007D
:10501000610060004800DD0062168000F1EF2F00A3
:10502000810061000100700060168800000000002F
:1050300001003700000000000080FA0000000600B8
:105040000200FA00004F78001E80FB007800B900D3
:1050500000007800F000400060A9200000804000BF
:10506000104078000080FA00000006000200FA00FC
:10507000004F78001E80FB007800B9000000780027
:10508000F000400060A9200000804000104078003F
:105090000004A2000080FB00004078000080FA00BD
:1050A000000006000400FA00004F78001107980085
:1050B0001E80FB007800B9008000780060A9200005
:1050C000008040009E009000010878000080FA00F7
:1050D000000006000400FA00004F78001107980055
:1050E0001E80FB007800B9008000780000AA200034
:1050F000008040009E009000010878000080FA00C7
:10510000000006000400FA00004F78001107980024
:105110001E80FB007800B90080007800E0A9200024
:10512000008040009E009000010878000080FA0096
:10513000000006000400FA00004F780011079800F4
:105140001E80FB007800B90080007800C0A9200014
:10515000008040009E009000010878000080FA0066
:10516000000006000600FA00004F780011079800C2
:10517000220798001E80FB007800B90080007800AC
:1051800020AA2000008040009E00900001087800C6
:105190001E80FB007800B9008000780040AA200043
:1051A00000804000AE009000010878000080FA0006
:1051B000000006000200FA00000F78000080FA00EC
:1051C000000006000800FA00100798002207980067
:1051D0003307980007080700000F78001E009000B2
:1051E000B00890001E009000200890001E001000E3
:1051F000808040001E009000310898001E00900042
:105200009E007800210898001E0090001050900029
:105210000004A2000004E000110032001E00900013
:10522000B00890001E00900070009000808F500029
:105230001B0039001E0090002050900011C0B300E8
:1052400003FF07001E0090008000EB00310898006B
:105250001E00900011C0B3001150980010003700DC
:105260001E009000B00890001E00900060009000AA
:10527000808F50000A0039001E00900020509000DE
:105280008040EB00F2FE07001E0090008000EB0063
:10529000310898001E0090008040EB0011509800EB
:1052A0000080FA00000006000800FA00404798005D
:1052B00051479800320798004E4090000080FB0054
:1052C0007800B9008000780060A9200000804000CC
:1052D000100F78004E4090000BFF07002047980009
:1052E0008000EB004E4090006EFF07008040EB0016
:1052F0004E409000D6FE07000A00370011C0B300F0
:105300004E409000D2FE07003E009000D0070700FC
:105310008040EB004E409000CDFE07003E00900024
:10532000CB0707005E4090000080FB000000EA0011
:105330004F00DE0000407800DE4090008140E90030
:10534000514798000004E000ECFF3A009E0078000E
:105350004E40900053FF0700AE4090004E4090003A
:10536000BBFE07000080FA00000006000000FA0003
:10537000D022A90081368000F00F2E0080806000CE
:10538000003020000100700080368800D042A80064
:105390002135800000FE2F00008060002001B30056
:1053A000203588000080FA00000006000000FA00A6
:1053B0007D000700ED4F500002003A0000842000FD
:1053C000C80007000080FA00000006000200FA0092
:1053D000004F7800008C200001C5B3000148780020
:1053E00001C3B3001EC0400080407800108C200034
:1053F0000148780021C0B300008C2000970007000E
:1054000010C0B3000080FA00000006000200FA009D
:10541000004F78001E407800ECFF07000080FA0083
:10542000000006000200FA00004F7800008C200007
:1054300021C5B3000148780001C3B3001EC040007D
:1054400080407800108C20000148780021C0B30013
:10545000008C20008100070010C0B3000080FA001B
:10546000000006000C00FA0040079800214F980049
:1054700030C0B300004F78000040EB0010479800A8
:105480000000EB0010079800410037001E4090001C
:105490000080FB00E10F50001B003200E20F5000C3
:1054A000300032000000E00038003A0000C8200060
:1054B000010020003C0907003B000700ED4F5000B1
:1054C0000E003A000084200090407800F0C4B30041
:1054D00080CF500007003A001084200090407800F0
:1054E000B0C4B30080CF500002003A0010C0B30037
:1054F0002B0037000040EB002900370010C0B3003C
:1055000010479800220037001E4FE9001E40780027
:105510000004E00002003A000040EB0020003700E9
:1055200034070700200798000000EB0010079800E0
:1055300020C0B30010479800150037002D07070062
:1055400030079800BE0090002E00900000805000B0
:105550009E0090000080400010079800BE00900060
:10556000210798009E00900030062000808F500098
:10557000F2FF3600AE4890004E0090003700070062
:105580000040EB00104798000100370000000000C9
:105590001E4078000004E000BCFF3A000040EB0031
:1055A0000080FA00000006000200FA0070C0B3009C
:1055B000004F78001F00370011C0B30010C0B300C7
:1055C00023FE070023030700004F78001E407800E9
:1055D000ED4F500007003A003EC8BF000080FB00BE
:1055E000018420000041EB00827078003E68EF00EB
:1055F000100037001E407800EA4F50000D003200C6
:105600003EC8BF000080FB00018420001E417800DE
:1056100082707800E183200091407800E0C7B300F9
:1056200080CF500003003E003EC8BF000040E800AD
:105630003EE8B70070030700620060000000E00071
:10564000DDFF3A008040EB0010C0B30000FE070011
:105650001E4078000080FA00000006000800FA00F2
:1056600020079800614798000000EB00000F7800C9
:105670001200370060030700100798001E0090001A
:10568000700060000000E0000C0032006E409000EE
:105690000080FB009E0050002E0090001E00400085
:1056A0003C0307001E0F40006E4090000080FB008E
:1056B0009E0F500006003600000000006E40900073
:1056C0000080FB009E0F5000EAFF3E000100370003
:1056D00000000000D0C0B300130307000080FA00F0
:1056E000000006000600FA00881F780020079800D6
:1056F0002E009000104078000000FB0031052000D3
:10570000810F50009F00320031052000810F5000B2
:105710000A003C0091042000810F500081003200FB
:10572000C1042000810F50008500320031042000A8
:10573000810F50000B003200C200370061052000CD
:10574000810F5000A800320061072000810F500037
:105750009900320041052000810F50008C0032007A
:10576000B80037002E00900090407800008C200098
:10577000014878002E0090000000E80010407800FA
:105780000000FB0021072000810F50000E003200B6
:1057900021072000810F500004003C00510620002A
:1057A000810F50003F0032005B00370031072000BE
:1057B000810F50004900320071072000810F500016
:1057C000230032005400370010C0B300004F7800AF
:1057D0001E80FB00AE0090008100E80011417800BF
:1057E000018C2000827078001E4FE8009E80FB0034
:1057F000008C20000080400002012000B19D2000AC
:10580000E2F607009E40780070CF40001E80FB004B
:10581000018C2000C2C2B300827078001E4FE800E5
:105820009E80FB00008C20000080400002062000CB
:10583000B19E2000D5F6070001C6B3001ECF400080
:105840009E407800008C200084FF07003400370061
:105850002E0090000000E80090407800108C20009E
:10586000014878002E009000F30040002E009000C8
:105870000080E80003C6B3000101780001C1B30055
:10588000E70007000043B00080407800208C200033
:105890000148780031C0B300008C20006FFF070082
:1058A0001F0037002E0090000000E80090407800B4
:1058B000108C200001487800C50007000043B000AC
:1058C00080407800208C20000148780031C0B3006F
:1058D000008C200061FF0700110037002E009000AF
:1058E0000000E80090407800108C2000014878000B
:1058F000209D2000104078000043B00080407800D8
:10590000208C20000148780031C0B300008C2000BA
:1059100052FF0700020037005C0007000000000093
:105920004B0037007041800010007800E30F5000FA
:10593000010032006E0307004800070044003700F2
:105940002E0090000000E8009040780010C3B300E3
:1059500080CF500005003A004206200031C0B3005D
:1059600020C0B30050FE07000400370042062000AC
:1059700031C0B30010C0B3004BFE07003700070072
:10598000330037007503070034000700300037008C
:10599000784180002E0090000000E8008E80E80032
:1059A000A20020009BF60700000078001004980079
:1059B0002A000700260037002E0090009040780053
:1059C000008C20000148780092002000A1C129002D
:1059D000108C20006DF6070091C0B300008C2000F1
:1059E0001EFF07001A0037002E009000904078003C
:1059F000008C200001487800108C2000B1C6B30054
:105A000001487800208C200091C6B300014878003E
:105A1000308C200041C7B30001487800408C200042
:105A200011C3B30001487800508C200011C6B300A8
:105A30000148780061C0B300008C200007FF070018
:105A40000300370070C0B3003702070000000000F9
:105A50004F0478000080FA00000006000000FA0001
:105A6000008C2000F1C4B30001487800108C2000A5
:105A7000B1C4B3000148780021C0B300008C2000FD
:105A8000F6FE07000080FA00000006000000FA00A1
:105A900070C0B300240207000080FA000000060076
:105AA0000400FA006BF707003A68EF00A1F707005F
:105AB000008FBE001E00BE00E00F5000E08F5800B7
:105AC00002003A000040EB000400370010C0B300B1
:105AD0003AE8B700E6F7070010C0B3000080FA000C
:105AE000000006000200FA00000F78001E00780097
:105AF0001000BE00E00F5000E08F58000C003A008C
:105B0000200320000D0007000004E0000200320026
:105B10001B000700010037005D0007001E01780030
:105B2000803E2000010020000089BE0001003700F7
:105B3000000000000080FA00000006000200FA00E9
:105B4000000F7800A09D20008040EB000148780005
:105B50009E017800A29D2000319D20000040EB00B6
:105B600086F8070080407800209D200001487800DA
:105B7000209D2000104078000080FA000000060000
:105B80000000FA00209D2000104078000004E00092
:105B900002003A000040EB000B003700470007000E
:105BA0000004E00002003A000040EB00060037006D
:105BB000820007000004E00002003A000040EB0011
:105BC0000100370010C0B3000080FA00000006009A
:105BD0000000FA00209D2000104078000004E00042
:105BE00002003A000040EB000B0037000D010700F7
:105BF0000004E00002003A000040EB00060037001D
:105C0000120107000004E00002003A000040EB002F
:105C10000100370010C0B3000080FA000000060049
:105C20000800FA00000F780021479800220798002A
:105C300063479800209D2000104078000004E00099
:105C400002003A000040EB000F003700AE40900029
:105C50001E0078002C0007000004E00002003A005B
:105C60000040EB0008003700EE4090002E0090004E
:105C7000920007000004E00002003A000040EB0040
:105C80000100370010C0B3000080FA0000000600D9
:105C90000000FA00020120008000EB00B09D20000F
:105CA000C1F50700020620008000EB00B09E200036
:105CB000BDF507000080FA00000006000000FA00B1
:105CC000A09D200010407800C5B520000042EB00E8
:105CD000420020000300200080407800309D20001A
:105CE0008AF707000004E00002003A000040EB00E1
:105CF00003003700B19D200040C0B300C2F7070089
:105D00000080FA00000006001400FA00000F98005E
:105D100021579800A09D200010407800C5B52000B4
:105D20000042EB0042002000030020008040780089
:105D3000309D200075F707000004E00002003A00E3
:105D40000040EB001B0037008E08900040C0B300FD
:105D5000E2F707000004E00002003A000040EB0018
:105D6000140037008E00780040C0B300A6F707008B
:105D70000004E00002003A000040EB000D00370094
:105D8000020120008E0078000E08900071F50700D7
:105D90000000E000020032000040EB000500370088
:105DA000020120008E089000B09D200077F50700CA
:105DB00010C0B3000080FA00000006000400FA00E2
:105DC0000040EB001047980080C0B300004F7800FF
:105DD0009E40780068C0400030479800300037008F
:105DE0001E80FB008000EB0020F807000004E000AC
:105DF000020032000040EB00204798001E80FB00AC
:105E00008000EB0050F807000004A2000004E0004E
:105E1000220032002E4090000004A2000004E000A6
:105E2000100032001E80FB008000EB00A29D2000CD
:105E300012437800C5B520000042EB000001BE000F
:105E400086407800309D200030F707000004E00015
:105E500002003A000040EB001600370010C0B3000B
:105E6000204798001E4090008080FB00B09E2000DC
:105E700000804000800078001E40780062F7070034
:105E80000004E00002003A000040EB000900370087
:105E90001E40900070404000104798001E4FE800E0
:105EA0003E4090009E40780080CF5000CCFF3900EB
:105EB00010C0B3000080FA00000006006800FA007D
:105EC0002037980061E798000040EB0010479800E9
:105ED00080C0B300004F78009E40780068C040004A
:105EE000304798003B0037001E80FB008000EB002D
:105EF000DEF707000004E000020032000040EB0083
:105F0000204798001E80FB008000EB000EF8070081
:105F10000004A2000004E0002D0032002E4090009A
:105F20000004A2000004E000100032001E80FB000C
:105F30008000EB00A29D200012437800C5B5200030
:105F40000042EB000001BE0086407800309D20003A
:105F5000EEF607000004E00002003A000040EB000B
:105F60002E00370010C0B300204798001E4090005C
:105F70000080FB00AE309000008040008000780080
:105F80001E40780055F707000004E00002003A00C8
:105F90000040EB00210037001E4090000080FB0015
:105FA000E400470000804000800078001E40780038
:105FB00015F707000004E00002003A000040EB0083
:105FC000160037001E4090007040400010479800B7
:105FD0001E4FE8003E4090009E40780080CF500069
:105FE000C1FF3900640047000206200080007800ED
:105FF0002E309000D7F407000000E00002003200CD
:106000000040EB000500370002062000AE30900093
:10601000B09E2000DDF4070010C0B3000080FA003D
:10602000000006001000FA00020120008000EB00D2
:106030000E007800DCF4070001C1B3000E00780008
:1060400031FF07000080FA00000006006000FA003F
:10605000020620008000EB000E007800D2F407005A
:1060600001C6B3000E00780094FF07000080FA001C
:10607000000006000000FA008000200000118800E7
:106080002222EF00F00C2000401188009560A8004B
:1060900021E2A8002342A800A0942000304A8800F2
:1060A000A0942000204A880020952000104A8800F3
:1060B00020952000004A8800404A80000010A0007F
:1060C000404A8800404A80000090A000404A880072
:1060D000404A80000080A100404A8800404A800079
:1060E0000000A100404A88000080FA00000006007D
:1060F000809FBE000000FA00414A8000002020007E
:10610000008060000000E000020032009580A900DD
:106110001F0037008580A90018003700304A800032
:10612000104078000080FB0020118800304A800079
:106130000000E800304A8800314A800020952000A5
:10614000808F500002003A00A0942000304A88005E
:10615000404A80000080A100404A8800314A800007
:10616000204A8000808F500004003A00404A80009E
:106170000090A000404A88000500370011118000FF
:1061800000202000008060000000E000E3FF3200FB
:106190000080FA004F00BE0000400600809FBE0055
:1061A0000000FA0018003700004A8000311180001A
:1061B0008140780001487800004A80000000E80033
:1061C000004A8800014A8000209D2000808F5000F6
:1061D00002003A0020952000004A8800404A8000D2
:1061E0000010A100404A8800014A8000104A800047
:1061F000808F500004003A00404A80000000A00058
:10620000404A8800040037001011800061006000DF
:106210000000E000E4FF3A008560A9000080FA0079
:106220004F00BE0000400600801F78000000FA000A
:1062300010118000620060000000E00001003200E8
:106240002222A9008C20A9000080FA004F007800CB
:10625000004006000200FA000040EB00004F78000A
:10626000104A8000104F7800104A80000000E800BB
:10627000104A8800114A8000209D2000808F500025
:1062800002003A0020952000104A8800114A800040
:10629000004A8000808F500003003A00404A80008E
:1062A0000010A000404A8800404A80000000A10081
:1062B000404A88001E4078000080FA000000060076
:1062C0000600FA00881F7800100798002107980040
:1062D0000000EB00000F780009003700404A800002
:1062E000620060000000E0000A003A001E0090001A
:1062F0001E044000D7FF0700004C78001E0FE80086
:106300002E0090009E007800808F5000F3FF39002F
:1063100001003700000000001E0078004F047800E4
:106320000080FA00000006000200FA00004F78002A
:106330009580A900204A80001E487800204A8000ED
:106340000000E800204A8800214A800020952000B3
:10635000808F500002003A00A0942000204A88005C
:10636000404A80000090A100404A8800314A8000E5
:10637000204A8000808F500003003A00404A80008D
:106380000080A000404A88009580A8000080FA00A4
:10639000000006000600FA00100798002107980088
:1063A0000000EB00000F78000A003700414A80002F
:1063B00000102000008060000000E0000A003A00A9
:1063C0001E0090001E004000104078001E0FE800E4
:1063D000D5FF07002E0090009E007800808F5000AF
:1063E000F2FF390001003700000000001E007800B5
:1063F0000080FA00000006000200FA000000EB0036
:10640000000F7800414A80000010200000806000EA
:106410000000E000010032001E30A000414A800070
:1064200000202000008060000000E0000100320039
:106430001E40A000404A8000610060000000E000B3
:10644000010032001E00A000404A8000620060008F
:106450000000E000020032001E20A0000100370012
:106460001E10A0001E0078000080FA000000060048
:106470000200FA00000F7800104A80009E004000E1
:10648000209D2000808F500008003600104A8000B8
:106490009E004000209D20000000EA000080400097
:1064A000219520006140780003003700104A8000E9
:1064B0001E004000104078000080FA000000060036
:1064C0000000FA00404A8000610060000000E00027
:1064D0000F003A00114A8000004A8000808F50006F
:1064E00005003600104A800080007800004A8000D5
:1064F0000080500007003700104A800080007800BC
:10650000004A8000008050000008B0000100370001
:106510000000EB000080FA00000006000000FA0016
:10652000414A800000102000008060000000E00070
:106530000F003A00314A8000204A8000808F5000CE
:1065400005003600304A800080007800204A800034
:106550000080500007003700304A8000800078003B
:10656000204A800000805000680040000100370091
:106570000000EB000080FA00000006000000FA00B6
:10658000404A80000000D100614060000080FB00B4
:1065900000F0A7000000EA000000EA004F00DE0063
:1065A000004078000080FA00000006000000FA00B9
:1065B000404A80004800DE00614060000080FB002F
:1065C00000F0A7000000EA000000EA004F00DE0033
:1065D000004078000080FA00000006000000FA0089
:1065E000101180000080FA00000006000000FA0090
:1065F000D122A900C822A800C802A80010C0B30078
:1066000030E8B700550007000080FA0000000600DF
:106610000000FA000080FA00000006000400FA0002
:10662000F4020700000F7800A04180001E00100057
:10663000100798009E007800A14188005016800045
:10664000610060000000E00008003A0030C8BF00B0
:106650000004E00005003200915A80001E00900006
:1066600000804000905A8800020037000000EB00D4
:10667000905A880050168000620060000000E00020
:1066800008003A0030C8BF000004E00005003200F6
:10669000C15A80001E00900000804000C05A88004F
:1066A000020037000000EB00C05A880030C8BF006D
:1066B0000004A2000004E0000A00320091418000C2
:1066C0001E009000008040009041880091418000B1
:1066D000900F2000808F50000200360010C0B300E1
:1066E00030E8B700410007000080FA000000060013
:1066F0000000FA00704180002100200001087800AD
:106700008000EB000040EB0066FA070011C0B30008
:106710000040EB00CEF90700D522A8000080FA0067
:10672000000006000000FA00704180001100200007
:106730000108780042062000410620000040EB00DE
:1067400088FA0700110020000040EB0055FA07000E
:10675000D522A8000080FA00000006000000FA0020
:10676000704180008000EB000108780082BB2000AF
:10677000A10F20000040EB007AFA07001100200072
:106780000040EB0047FA0700D522A9000080FA007C
:10679000000006000000FA00501680006200600051
:1067A0000000E00006003A00704180001000780010
:1067B0000000E00002003A008B00070009003700EB
:1067C00050168000620060000000E000050032000A
:1067D00070418000100078000000E00001003200ED
:1067E000960007000080FA00000006000000FA0092
:1067F000230007000080FB00E10F50000E00320074
:10680000E10F500003003C000000E00006003200F1
:1068100012003700E30F500005003200E40F500073
:106820000C0032000D0037009B0007000B00370002
:10683000A4000700090037007041800010007800B4
:106840000000E00001003A00670007007000070048
:106850000200370079000700000000000080FA0005
:10686000000006000000FA0064000700A00F2000EE
:10687000770207005C0007000080FA0000000600B5
:106880000400FA0000C0EB00104798000040EB0045
:10689000004F78004E0037001E80FB006600B900F4
:1068A0008000780000B520000080400010079800AC
:1068B0001E009000104078000080FB00E10F5000A7
:1068C00011003200E20F50002C0032000000E00006
:1068D0003B003A001E00900090009000C003200092
:1068E000808F5000380036001E009000900090000D
:1068F0001E009000210098001E00900011C0B300FF
:1069000001487800310037001E0090009000900090
:1069100080BB2000808F5000070036009E4078002A
:1069200063C04000104798001E00900021C0B300D3
:1069300001487800250037001E009000900090006C
:106940001E00900020009000808F50000600310053
:106950009E407800114798001E00900021C0B300AF
:1069600001487800190037001E0090009000900048
:106970001E00900021009800140037001E009000B7
:10698000900090001E00900020009000808F50002A
:10699000060031001E0090008040EB0001487800A6
:1069A0003068EF003228EF00080037001E0090002A
:1069B000900090001E009000210098000300370016
:1069C0000000000001003700000000001E4FE8003A
:1069D0001E407800E14F5000AFFF36001E4090008F
:1069E0000080FA00000006000000FA004DFF0700DA
:1069F000D522A8000080FA00000006000000FA007E
:106A000056FF0700D522A9000080FA00000006000A
:106A10000000FA007041800010007800E20F500082
:106A200003003A000040EB0078FA0700010037004D
:106A3000000000000080FA00000006000000FA00DC
:106A4000823E2000813E20000040EB00C5F9070097
:106A5000110020000040EB0092F9070010C0B300C5
:106A60006AFA07000004E00008003200E5010700B0
:106A700000000000DF010700F1E12400810F500059
:106A8000FCFF3600DDFF07000100370000000000BA
:106A90000080FA00000006000000FA00704180004B
:106AA00010007800E20F500003003A000040EB00B5
:106AB0005CFA070001003700000000000080FA00C7
:106AC000000006000000FA0070418000100078000D
:106AD000E20F500003003A0010C0B30051FA070063
:106AE00001003700000000000080FA0000000600EE
:106AF0000000FA0060002000800C8800C000200028
:106B0000900C880000642000A00C88000032200057
:106B1000B00C88009821EF00800C800000407800C5
:106B2000674060000080FB00C04188008440A900ED
:106B30009440A8000080FA0000000600801F780042
:106B40000000FA0020048000640060000000E00003
:106B5000010032008440A9000080FA004F00780054
:106B6000004006000000FA00C041800000407800AC
:106B7000674060000080FB0067006000820C8000BE
:106B800081FF2F008100610001007000800C8800EF
:106B90000080FA00000006000000FA00800C80006F
:106BA0000000A1000010A1000020A100800C8800BE
:106BB0000080FA00000006000200FA00000F7800D2
:106BC0009E007800B10C88000080FA0000000600EA
:106BD0000400FA00000F7800110798009E0078006A
:106BE000B10C88009E009000A10C88000080FA0083
:106BF000000006000400FA00000F7800110798005A
:106C00009E007800B10C88009E009000A10C8800C6
:106C10000080FA00000006000400FA00000F78006F
:106C2000110798009E007800B10C88009E0090002B
:106C3000A10C88000080FA00000006000200FA00A3
:106C4000000F78009E007800A10C88000080FA00F8
:106C5000000006000200FA00000F78009E00780095
:106C6000B10C88000080FA00000006000000FA0065
:106C7000200480004200DE00614060000080FB00D4
:106C800000F0A7000000EA000000EA004F00DE006C
:106C9000004078000080FA00000006000400FA00BE
:106CA000100798001E009000E10F50000F00320006
:106CB000E10F500003003900E20F500015003200D0
:106CC0001E003700800C80004400DE006140600040
:106CD0000080FB0000F0A7000000EA000000EA00CE
:106CE0004F00DE00004F780014003700800C800059
:106CF0004500DE00614060000080FB0000F0A7005E
:106D00000000EA000000EA004F00DE00004F7800BB
:106D10000A003700800C80004600DE006140600001
:106D20000080FB0000F0A7000000EA000000EA007D
:106D30004F00DE00004F7800000000001E40780089
:106D40000080FA00000006000200FA00000F780040
:106D50001E007800E10F500007003200E10F5000E4
:106D600003003900E20F5000050032000600370032
:106D70009081A9000400370090A1A900020037000B
:106D800090C1A900000000000080FA000000060089
:106D90000000FA0092C1A8000080FA00000006007E
:106DA0000000FA00900C80004600DE0061406000A8
:106DB0000080FB0000F0A7000000EA000000EA00ED
:106DC0004F00DE00004078000080FA00000006005E
:106DD0000000FA0092C1A9000080FA00000006003D
:106DE0000000FA00C102A90070418000C103200028
:106DF000110098003C28EF00020007000080FA0014
:106E0000000006000000FA00C502A8000080FA0099
:106E1000000006000000FA00C502A9000080FA0088
:106E2000000006000000FA007041800010007800A9
:106E3000E20F500002003200F6FF07001700370093
:106E40007041800090009000E0418000808F5000F1
:106E5000110032007041800090009000000420007A
:106E6000808F500002003400E6FF07000600370064
:106E7000704180009000900070032000808F5000CF
:106E800001003C00E3FF070070418000100090000B
:106E9000E041880001003700000000000080FA0097
:106EA000000006000E00FA0060079800A000200015
:106EB00001002000008FBE001E00BE00E00F500049
:106EC000E08F580002003A000000EB002C00370071
:106ED0001E01BE0010042000010020000DF107007B
:106EE00020079800310798006E009000CF80DE00E8
:106EF0007003B1000180B10040079800510798006D
:106F00004E009000DE0090002E0190000191B9002B
:106F100002017800BE019000009AB9008401780057
:106F200003014100AE0190000018B80001014100CA
:106F3000820078003002B0000180B0004007980065
:106F4000510798004E009000DE009000823E200025
:106F500003002000E0F00700400798005107980068
:106F60004E009000DE009000E00F5000E08F5800CF
:106F700002003D000000EB00010037004E009000D1
:106F80000080FA00000006000200FA00000F7800FE
:106F90007041800010009000C2FF0700020007004F
:106FA0000080FA00000006000600FA0020079800A2
:106FB000600880000000E9006101B8002E00900028
:106FC0008000EB00009AB90004027800028BB9003F
:106FD00086027800050242000010B800010242005B
:106FE00084007800420620000289B900020178007E
:106FF0006002B900840178000301410043062000CB
:107000000300B8000101410082007800008FBE003B
:10701000008FBE001E00BE0002712200030020008F
:10702000BCF00700008FBE001E00780009FF0700BB
:107030001E00780001FF07000080FA000000060033
:107040000000FA000021EF0000E82300100888008B
:1070500000002800200888008460A9009460A8002F
:107060001868EF000080FA00000006003600F80003
:10707000809FBE00829FBE00849FBE00869FBE0090
:107080000000FA00E0408000F1408000E00F500076
:10709000E08F580006003200E0408000F1408000A0
:1070A00061005000E0805800E0408800F140880016
:1070B0000041800011418000E00F5000E08F580037
:1070C0000600320000418000114180006100500044
:1070D000E080580000418800114188002600070028
:1070E00019C8BF000040E80019E8B700D040800090
:1070F0000000E800D040880010C0B30018E8B700D6
:107100008460A9000080FA004F03BE004F02BE0059
:107110004F01BE004F00BE003600F90000400600DF
:107120000200FA00000F78009E0078001108880025
:107130001868EF000080FA00000006000000FA0066
:10714000100880000080FA00000006000200FA002B
:10715000000F78009E007800010888001868EF0092
:107160000080FA00000006000000FA00000880001D
:107170000080FA00000006000000FA00F4F60700A4
:107180000080FA00000006000000FA001868EF0016
:107190009460A80005E1A8000080FA000000060045
:1071A0000000FA0005E1A9009460A9000080FA003F
:1071B000000006000200FA00818120009140780062
:1071C000014F78001E4078000004E000010032000A
:1071D0001868EF001E4078000080FA0000000600EA
:1071E0000000FA0019C8BF000080FB000080FA0010
:1071F000000006000000FA00D04080000080FA0085
:10720000000006000000FA001968EF001A28EF00DD
:107210000080FA00000006000400FA001007980041
:1072200019C8BF008080FB001E009000100078008D
:10723000008F500019C8BF008080FB001E00900026
:10724000010878001E0078000080FA0000000600A7
:107250000200FA00000F78001E00E8008000EB003A
:10726000E0408800F140880000000000E04080001D
:10727000F1408000E00F5000E08F5800FBFF3A0023
:107280000080FA00000006000A00FA0030079800AB
:10729000014F9800124F980010002000200798001E
:1072A0000000EB00000F7800240037000000EB0026
:1072B000100798001E4890000080FB00E400470083
:1072C00081017800000178008E4890003E00900017
:1072D000AEF507000900370010002000DCFF0700B2
:1072E0009E00900020032000808F50000700320095
:1072F0001E0090000000E800100798002E0090008B
:10730000E10F5000F4FF32000100370000000000E0
:107310009E00900020032000808F50000C0032005F
:107320002E009000E20F5000090032001E0FE8000E
:107330001E007800E10F5000040032002E00900083
:107340000000E000D9FF3A00010037000000000013
:107350000080FA00000006000A00FA0030079800DA
:10736000014F9800124F980010002000200798004D
:107370000000EB00000F7800240037000000EB0055
:10738000100798001E4890000080FB00E4004700B2
:1073900081017800000178008E4890003E00900046
:1073A00061F507000900370010002000A8FF070062
:1073B0009E00900020032000808F500007003200C4
:1073C0001E0090000000E800100798002E009000BA
:1073D000E10F5000F4FF3200010037000000000010
:1073E0009E00900020032000808F50000C0032008F
:1073F0002E009000E20F5000090032001E0FE8003E
:107400001E007800E10F5000040032002E009000B2
:107410000000E000D9FF3A00010037000000000042
:107420000080FA0000000600180800000C000000B0
:10743000000000001E0B0000200000000000000003
:10744000360800000200000002000000FFFF0000FC
:107450004009000092000000000000006C0B0000DA
:1074600002000000000000003808000002000000D8
:10747000000000003E0B00001200000000000000B1
:107480000008000018000000000000005C0B000075
:107490000600000002000000FFFFFF00FFFFFF00EA
:1074A000D20900007A000000000000003A08000045
:1074B0000200000000000000620B00000600000057
:1074C0000200000000FF0600FAD50300DE0A0000FB
:1074D00040000000000000003C0800000200000026
:1074E00000000000960A00004800000000000000B4
:1074F0002408000006000000000000002A08000028
:107500000600000000000000500B00000C0000000E
:10751000000000003008000006000000000000002D
:107520004008000000010000000000003E080000CC
:1075300002000000000000004C0A00004A000000A9
:107540000200000030313200333435003637380065
:10755000396162006364650066676800696A6B0090
:107560006C6D6E006F7071007273740075767700C9
:1075700078797A0000000000211511000E0D0C0032
:107580000B0B0A000A09090009090900080808008C
:107590000808080008070700070707000707070093
:1075A0000707070007070000680B00000400000041
:1075B00000000000FA3C80000000FA000621EF0005
:1075C00000E8230060088800000028008008880088
:1075D000C0B620008040EB00014878000080FA002F
:1075E000000006000000FA002104800000082000CE
:1075F000008060000000E00009003200D0B62000EA
:10760000104078008040E800D0B6200001487800A3
:10761000C0B6200011C0B3000148780084E0A90082
:107620000080FA00000006000200FA00000F780057
:107630009E00780061088800C0B620008040EB0002
:10764000014878000080FA00000006000000FA00FF
:10765000600880000080FA00000006000200FA00C6
:10766000000F78009E00780031088800C0B6200026
:107670008040EB00014878000080FA00000006001E
:107680000000FA00300880000080FA0000000600C8
:107690000000FA00C0B620008040EB0001487800EE
:1076A00011E1A8000080FA00000006000000FA00C6
:1076B00011E1A9000080FA00000006000200FA00B3
:1076C000C0B62000104F78001E4078000004E00093
:1076D00003003200C0B620008040EB000148780073
:1076E0001E4078000080FA00000006000000FA004A
:1076F000D0B62000104078000080FB000080FA0027
:10770000000006000000FA00D0B620008040EB0028
:10771000014878000080FA00000006000000FA002E
:107720004C000700AE00070030F50700AFFB070074
:10773000ABFD07000DF7070011C0B30010C0B30088
:10774000C3F5070011C0B30020C0B300C0F50700A7
:1077500011C0B3000040EB00BDF50700A9FE070013
:1077600000000000A3FE070071BB2000810F500045
:10777000FCFF3600CAF80700A8FB0700A9FD0700B8
:107780000AF7070000822000D6F80700209D20009D
:10779000104078000004E0000400320011C0B30083
:1077A00020C0B300AAF50700F3FF37008040EB00CC
:1077B00020C0B300A6F50700EFFF37000000FA0075
:1077C000E00580000080A0000090A10000A0A100C2
:1077D000E0058800E00580000040A0000050A10006
:1077E0000060A100E0058800200580000080A00066
:1077F0000090A10000A0A1002005880020058000C5
:1078000000C0A00000D0A10000E0A1002005880079
:10781000200680000040A0000050A1000060A100F0
:1078200020068800500580000000A0000010A10084
:107830000020A100500588004005800000C0A00085
:1078400000D0A10000E0A100400588000080FA00FF
:10785000000006000000FA0040000700D7FF070004
:107860000700070003FA0700A1FC0700C6F20700A3
:1078700051FF0700F2FD07000080FA00000006003B
:107880000200FA0080252000000F78000001EB00C4
:1078900060042000710520002374200080497800D6
:1078A000814978008249780000122300203A88003C
:1078B000000000001E00780000F0A7000000EA00B1
:1078C0000000EA004F00DE00004078001E0FE900D3
:1078D0000004E000F7FF3A004827EF004E27EF00D2
:1078E0004027EF000080FA0000000600000F78003B
:1078F0009E007800B1418800FFFF37000000FA00C9
:10790000E0B120008007780060B32000000188000B
:107910000080FA00000006003600F8008020A90070
:107920000000EB00F1FF07003600F800F3FF07004E
:107930008040A90010002000ECFF07003600F8008E
:107940008060A90020002000E8FF07003600F80052
:107950008080A90030002000E4FF07000000FA004A
:10796000C422EF00CC22EF00D422EF00F0792000F7
:1079700000168800F0FB2E0040168800F03F200023
:10798000801688006820EF006A20EF00C622EF0012
:10799000CE22EF00D622EF000080EB0060198800B5
:1079A0000080FA0000000600F03FB1000180B10045
:1079B00006003500EE03090000000000403FB10062
:1079C0000180B100FBFF3D001000B000203FB0007F
:1079D00002003500008009000000000000000600E1
:1079E0000000FA00A0822000704188000080FA00A8
:0879F000000006000000000089
:020000040001F9
:1057F00033FF0000FFFF00009F890000603D0000B4
:00000001FF
